{
  "contractName": "LightValidation",
  "abi": [
    {
      "constant": true,
      "inputs": [
        {
          "name": "",
          "type": "address"
        }
      ],
      "name": "Witnesses",
      "outputs": [
        {
          "name": "deposit",
          "type": "uint256"
        },
        {
          "name": "weight",
          "type": "uint256"
        }
      ],
      "payable": false,
      "stateMutability": "view",
      "type": "function",
      "signature": "0x0c3c63be"
    },
    {
      "constant": true,
      "inputs": [],
      "name": "numWitness",
      "outputs": [
        {
          "name": "",
          "type": "uint256"
        }
      ],
      "payable": false,
      "stateMutability": "view",
      "type": "function",
      "signature": "0x45d99a08"
    },
    {
      "constant": true,
      "inputs": [
        {
          "name": "",
          "type": "address"
        }
      ],
      "name": "Devices",
      "outputs": [
        {
          "name": "id",
          "type": "uint256"
        },
        {
          "name": "isActive",
          "type": "bool"
        }
      ],
      "payable": false,
      "stateMutability": "view",
      "type": "function",
      "signature": "0x9790e96a"
    },
    {
      "constant": true,
      "inputs": [],
      "name": "numDevice",
      "outputs": [
        {
          "name": "",
          "type": "uint256"
        }
      ],
      "payable": false,
      "stateMutability": "view",
      "type": "function",
      "signature": "0xc920c2d0"
    },
    {
      "inputs": [],
      "payable": false,
      "stateMutability": "nonpayable",
      "type": "constructor",
      "signature": "constructor"
    },
    {
      "anonymous": false,
      "inputs": [
        {
          "indexed": true,
          "name": "device",
          "type": "address"
        }
      ],
      "name": "DeviceRegistered",
      "type": "event",
      "signature": "0x05d7f0c690676ba31675b45bcdb9ff4c34bb10744ec89d329eacd93c79ecc029"
    },
    {
      "constant": true,
      "inputs": [
        {
          "name": "device",
          "type": "address"
        }
      ],
      "name": "deviceExist",
      "outputs": [
        {
          "name": "isExist",
          "type": "bool"
        }
      ],
      "payable": false,
      "stateMutability": "view",
      "type": "function",
      "signature": "0xfadb82c8"
    },
    {
      "constant": true,
      "inputs": [],
      "name": "getDeviceList",
      "outputs": [
        {
          "name": "",
          "type": "address[]"
        }
      ],
      "payable": false,
      "stateMutability": "view",
      "type": "function",
      "signature": "0x79a49f0f"
    },
    {
      "constant": false,
      "inputs": [],
      "name": "registerDevice",
      "outputs": [],
      "payable": false,
      "stateMutability": "nonpayable",
      "type": "function",
      "signature": "0xcb12f386"
    },
    {
      "constant": false,
      "inputs": [],
      "name": "retireDevice",
      "outputs": [],
      "payable": false,
      "stateMutability": "nonpayable",
      "type": "function",
      "signature": "0x9f0d260f"
    },
    {
      "constant": false,
      "inputs": [],
      "name": "registerWitness",
      "outputs": [],
      "payable": true,
      "stateMutability": "payable",
      "type": "function",
      "signature": "0x80989875"
    },
    {
      "constant": false,
      "inputs": [],
      "name": "retireWitness",
      "outputs": [],
      "payable": false,
      "stateMutability": "nonpayable",
      "type": "function",
      "signature": "0x53eb8ee4"
    }
  ],
  "bytecode": "0x608060405234801561001057600080fd5b50600060038190555060006004819055506108fe806100306000396000f3fe6080604052600436106100a4576000357c0100000000000000000000000000000000000000000000000000000000900463ffffffff1680630c3c63be146100a957806345d99a081461011557806353eb8ee41461014057806379a49f0f1461015757806380989875146101c35780639790e96a146101cd5780639f0d260f1461023d578063c920c2d014610254578063cb12f3861461027f578063fadb82c814610296575b600080fd5b3480156100b557600080fd5b506100f8600480360360208110156100cc57600080fd5b81019080803573ffffffffffffffffffffffffffffffffffffffff1690602001909291905050506102ff565b604051808381526020018281526020019250505060405180910390f35b34801561012157600080fd5b5061012a610323565b6040518082815260200191505060405180910390f35b34801561014c57600080fd5b50610155610329565b005b34801561016357600080fd5b5061016c61040d565b6040518080602001828103825283818151815260200191508051906020019060200280838360005b838110156101af578082015181840152602081019050610194565b505050509050019250505060405180910390f35b6101cb61049b565b005b3480156101d957600080fd5b5061021c600480360360208110156101f057600080fd5b81019080803573ffffffffffffffffffffffffffffffffffffffff16906020019092919050505061054d565b60405180838152602001821515151581526020019250505060405180910390f35b34801561024957600080fd5b5061025261057e565b005b34801561026057600080fd5b5061026961066c565b6040518082815260200191505060405180910390f35b34801561028b57600080fd5b50610294610672565b005b3480156102a257600080fd5b506102e5600480360360208110156102b957600080fd5b81019080803573ffffffffffffffffffffffffffffffffffffffff169060200190929190505050610808565b604051808215151515815260200191505060405180910390f35b60006020528060005260406000206000915090508060000154908060010154905082565b60035481565b3373ffffffffffffffffffffffffffffffffffffffff166108fc6000803373ffffffffffffffffffffffffffffffffffffffff1673ffffffffffffffffffffffffffffffffffffffff168152602001908152602001600020600001549081150290604051600060405180830381858888f193505050501580156103b0573d6000803e3d6000fd5b5060008060003373ffffffffffffffffffffffffffffffffffffffff1673ffffffffffffffffffffffffffffffffffffffff1681526020019081526020016000206000018190555060036000815480929190600190039190505550565b6060600180548060200260200160405190810160405280929190818152602001828054801561049157602002820191906000526020600020905b8160009054906101000a900473ffffffffffffffffffffffffffffffffffffffff1673ffffffffffffffffffffffffffffffffffffffff1681526020019060010190808311610447575b5050505050905090565b346000803373ffffffffffffffffffffffffffffffffffffffff1673ffffffffffffffffffffffffffffffffffffffff16815260200190815260200160002060000160008282540192505081905550346000803373ffffffffffffffffffffffffffffffffffffffff1673ffffffffffffffffffffffffffffffffffffffff16815260200190815260200160002060010160008282540192505081905550600360008154809291906001019190505550565b60026020528060005260406000206000915090508060000154908060010160009054906101000a900460ff16905082565b6000600260003373ffffffffffffffffffffffffffffffffffffffff1673ffffffffffffffffffffffffffffffffffffffff16815260200190815260200160002060010160006101000a81548160ff0219169083151502179055506001600260003373ffffffffffffffffffffffffffffffffffffffff1673ffffffffffffffffffffffffffffffffffffffff1681526020019081526020016000206000015481548110151561062a57fe5b9060005260206000200160006101000a81549073ffffffffffffffffffffffffffffffffffffffff021916905560046000815480929190600190039190505550565b60045481565b61067b33610808565b1515156106f0576040517f08c379a000000000000000000000000000000000000000000000000000000000815260040180806020018281038252601a8152602001807f44657669636520616c726561647920726567697374657265642e00000000000081525060200191505060405180910390fd5b6001600260003373ffffffffffffffffffffffffffffffffffffffff1673ffffffffffffffffffffffffffffffffffffffff16815260200190815260200160002060010160006101000a81548160ff02191690831515021790555060013390806001815401808255809150509060018203906000526020600020016000909192909190916101000a81548173ffffffffffffffffffffffffffffffffffffffff021916908373ffffffffffffffffffffffffffffffffffffffff160217905550506004600081548092919060010191905055503373ffffffffffffffffffffffffffffffffffffffff167f05d7f0c690676ba31675b45bcdb9ff4c34bb10744ec89d329eacd93c79ecc02960405160405180910390a2565b600080600180549050141561082057600090506108cd565b8173ffffffffffffffffffffffffffffffffffffffff166001600260008573ffffffffffffffffffffffffffffffffffffffff1673ffffffffffffffffffffffffffffffffffffffff1681526020019081526020016000206000015481548110151561088857fe5b9060005260206000200160009054906101000a900473ffffffffffffffffffffffffffffffffffffffff1673ffffffffffffffffffffffffffffffffffffffff161490505b91905056fea165627a7a72305820008d29d3055df56c7fa2be9fa87824b680bd1c5abb49702d69dd4fe2dec01b5e0029",
  "source": "pragma solidity ^0.5.0;\r\n\r\ncontract LightValidation {\r\n  struct Witness {\r\n    uint256 deposit;\r\n    uint256 weight;\r\n  }\r\n  mapping (address => Witness) public Witnesses;\r\n\r\n  struct Device {\r\n    uint id;\r\n    bool isActive;\r\n  }\r\n  address[] DeviceAddress;\r\n  mapping (address => Device) public Devices;\r\n  event DeviceRegistered(address indexed device);\r\n\r\n  uint public numWitness;\r\n  uint public numDevice;\r\n\r\n  constructor() public {\r\n    // empty for now\r\n    numWitness = 0;\r\n    numDevice = 0;\r\n  }\r\n\r\n  function deviceExist(address device) public view returns (bool isExist) {\r\n    if (DeviceAddress.length == 0)\r\n      return false;\r\n    return (DeviceAddress[Devices[device].id] == device);\r\n  }\r\n\r\n  function getDeviceList() public view returns (address[] memory ) {\r\n    return DeviceAddress;\r\n  }\r\n\r\n  function registerDevice() public {\r\n    require(!deviceExist(msg.sender), \"Device already registered.\");\r\n    Devices[msg.sender].isActive = true;\r\n    DeviceAddress.push(msg.sender);\r\n    numDevice++;\r\n    emit DeviceRegistered(msg.sender);\r\n  }\r\n\r\n  function retireDevice() public {\r\n    Devices[msg.sender].isActive = false;\r\n    delete DeviceAddress[Devices[msg.sender].id];\r\n    numDevice--;\r\n  }\r\n\r\n  function registerWitness() public payable {\r\n    Witnesses[msg.sender].deposit += msg.value;\r\n    Witnesses[msg.sender].weight += msg.value;\r\n    numWitness++;\r\n  }\r\n\r\n  function retireWitness() public {\r\n    msg.sender.transfer(Witnesses[msg.sender].deposit);\r\n    Witnesses[msg.sender].deposit = 0;\r\n    numWitness--;\r\n  }\r\n  \r\n}\r\n",
  "sourcePath": "C:/Users/Chip Bomb/OneDrive - Michigan State University/lightvalidation/ethereum/contracts/LightValidation.sol",
  "compiler": {
    "name": "solc",
    "version": "0.5.0+commit.1d4f565a.Emscripten.clang"
  },
  "schemaVersion": "3.0.1",
  "updatedAt": "2019-09-18T02:48:32.382Z",
  "devdoc": {
    "methods": {}
  },
  "userdoc": {
    "methods": {}
  }
}